:020000040800F2
:10000000C006002001010008BF110008B50D00085E
:10001000BD11000849040008FB2A00080000000088
:10002000000000000000000000000000D1190008DE
:10003000A90B00080000000017010008BD200008FF
:100040001B0100081B0100081B0100081B01000820
:100050001B0100081B0100081B0100081B01000810
:100060001B0100081B0100081B0100081B01000800
:100070001B0100081B0100081B0100081B010008F0
:100080001B0100081B0100081B0100081B010008E0
:10009000A92A00081B0100081B0100081B01000819
:1000A0001B0100081B0100081B0100081B010008C0
:1000B000F121000831230008000000001B010008A6
:1000C0001B01000800000000000000001B010008E8
:1000D00000000000AD270008D12700080000000044
:1000E0001B0100081B0100081B010008DFF80CD0F1
:1000F00000F018F800480047E52B0008C006002073
:100100000648804706480047FEE7FEE7FEE7FEE7B1
:10011000FEE7FEE7FEE7FEE7FEE7FEE7C120000898
:10012000ED000008064C074D06E0E06840F00103D2
:1001300094E8070098471034AC42F6D3FFF7DAFF93
:100140006C2E00088C2E000870B501EB020410F82C
:10015000015B15F0070301D110F8013B2A1106D10C
:1001600010F8012B03E010F8016B01F8016B5B1E26
:10017000F9D12B0705D40023521E0FD401F8013BFF
:10018000FAE710F8013B02F10202A1EB030303E0DE
:1001900013F8015B01F8015B521EF9D5A142D6D3D9
:1001A000002070BD0029816802D041F0010101E00A
:1001B00021F00101816070470D4910B5884202D1DC
:1001C000012144150AE00B49884202D1012104159E
:1001D00004E0094988420AD10121CC03204601F0FC
:1001E000BDFA2046BDE81040002101F0B7BA10BDAD
:1001F0000024014000280140003C0140014600204D
:100200008968490700D501207047C06C80B27047EB
:100210000246002012680A4200D0012070470146C1
:1002200000208968090700D50120704710B5426891
:100230000E4B0C791A400B6842EA042213434360C8
:1002400082680B4B1A40D1E9024323434C7942EABE
:10025000440213438360C26A097C22F47002491E7F
:10026000C9B242EA0151C16210BD0000FFFEF0FFB9
:10027000FDF7F1FF70B5072609290AD9C568A1F174
:100280000A0404EB4404A640B543A3401D43C560E3
:1002900007E0056901EB4104A640B543A3401D43B7
:1002A00005611F23072A09D2446B521E02EB82020A
:1002B00093409C4391400C43446370BD0D2A09D286
:1002C000046BD21F02EB820293409C4391400C438B
:1002D000046370BDC46A0D3A02EB820293409C43F2
:1002E00091400C43C46270BD816841F00801816097
:1002F00070470029816802D041F4A00101E021F497
:10030000A00181607047816841F0040181607047FD
:1003100030B587B001214FF4047001F013FA4FF4A7
:10032000004001F0F9F90C20ADF8140000248DF81C
:10033000174005A9164800F06CFC164D2846FFF73B
:100340003BFF4FF46020CDE9020401208DF804400A
:100350008DF8100000948DF8054069462846FFF797
:1003600065FF01212846FFF71DFF2846FFF7BCFF68
:100370002846FFF754FF0028FAD12846FFF7C3FFAD
:100380002846FFF73BFF0028FAD107B030BD000038
:10039000001001400024014030B5012187B048041D
:1003A00001F0C4F90121052001F0CCF90420ADF8D9
:1003B000100018208DF81300214D03248DF81240F1
:1003C00004A9284600F025FC0821ADF810104821AA
:1003D0008DF8131004A9284600F01BFC26208DF888
:1003E00014008DF815408DF8164001208DF8170087
:1003F00005A800F0EAFE4FF4165000900020ADF87A
:100400000400ADF80600ADF80800ADF80C000C20B3
:100410000C4CADF80A006946204602F03FFA012272
:1004200040F22551204602F021FA0121204602F037
:10043000F4F94021204602F0EDF907B030BD00008C
:100440000008014000440040FEE7C1B2000A40EA53
:10045000012070472DE9F05F4BF6BF7848F2800924
:100460004D4F40F68F7A4D4E48F60F7B4C4D2CE0A9
:10047000088810F00F0030702FD005EB8000D0F806
:10048000001C8CB221040DD5D0F8001C89B201EA01
:100490000A01C0F8001C4348317800EB810050F895
:1004A000040C8047200610D5307805EB8000D0F88A
:1004B000001C89B201EA0B01C0F8001C3A483178EF
:1004C00000EB810050F8040C8047D5F8440C374904
:1004D00008800004CCD4BDE8F09FD5F8000C38802B
:1004E000388800F030007880388800F44050388038
:1004F000D5F8000C80B200EA080080F4005080F0CB
:10050000200040EA0900C5F8000C0888C006D5F8AC
:10051000000C1AD481B201EA0B01C5F8001C00F0EE
:10052000A7FC2AE03988890401D580F40050798835
:10053000C9062DD47988890601D580F0200080B2C3
:1005400040EA0900C5F8000CC5E780B2010509D5ED
:10055000D5F8000C80B200EA0A00C5F8000C01F0E2
:10056000C1FB0AE00004B0D5D5F8000C80B200EA67
:100570000A00C5F8000C00F0DBFED5F8000C398845
:1005800080B200EA0800C904CCD580F48050C9E7E5
:1005900080F01000CEE700003E0000202C0000207C
:1005A00000500040880000206C0000206A000020FD
:1005B00038B50121102001F0C5F84FF40074ADF8F2
:1005C000004010208DF803000320064D8DF8020036
:1005D0006946284600F01DFB2146284600F06EFBC8
:1005E00038BD00000010014030B50C46054601F052
:1005F00013F920EA04012846BDE8304002F092BA1F
:10060000094901EB8000D0F8001C49040AD5D0F854
:10061000001C48F68F7289B211404CF280021143DF
:10062000C0F8001C7047000000500040094901EB71
:100630008000D0F8001C49060AD5D0F8001C48F606
:100640008F7289B2114048F2C0021143C0F8001CF9
:100650007047000000500040074901EB8000D0F8CF
:10066000001C48F68F6289B2114048F280021143A3
:10067000C0F8001C7047000000500040124910B53F
:100680000A680628117801F07F0103D1012901D100
:10069000537913B121290AD013E09078222802D08F
:1006A000212802D00DE0094904E0094902E00328AD
:1006B00007D1084929B10020916150828847002064
:1006C00010BD022010BD00003000002019070008F6
:1006D000F1060008FD060008014901F0CFBB00004B
:1006E000B4000020014901F0C9BB0000AC000020AB
:1006F000014901F0C3BB0000BC00002008B1044860
:1007000070470449012009680882002070470000F2
:10071000A80000203000002000207047054909682B
:10072000C978042901D900207047034A02EBC101AE
:1007300001F0A4BB30000020F400002009B900281B
:1007400000D002207047000006490968097801F0CE
:100750007F01212901D10B2801D00220704700F030
:1007600083B800003000002070B5324800210068D6
:100770008172C1723049C9794172002001F02AF9B1
:100780004FF40071002001F01BFA1021002001F04D
:10079000E9F91821002001F069F95821002001F041
:1007A000C3F90020FFF758FF244890F82C100020D0
:1007B00001F06CF9002001F0A3F90021012001F003
:1007C000FFF99821012001F051F9D821012001F011
:1007D000ABF94021012001F059F94FF44054214672
:1007E000012001F073F92021012001F0BBF9002163
:1007F000022001F0E5F94FF49071022001F036F982
:100800004FF4B071022001F08FF94021022001F075
:100810003DF92146022001F059F92021022001F082
:10082000A1F9074D01242C60002001F0FDF82C6097
:1008300070BD0000300000201A2E0008C400002007
:10084000380100200348807A002802D002490520A0
:10085000086070478C010020380100200149042005
:100860000860704738010020034804490068C078D8
:10087000086000207047000030000020A800002021
:100880007047704710B500F07DFA054800240068F5
:10089000847200F0D1FE02F009F90248046010BD34
:1008A00030000020380100202DE9F05FDFF89C9037
:1008B000DFF89C804FF0300AD9F8001001F11004E5
:1008C000088A0E7A08B9042E29D0A5880426A842E1
:1008D00000D90226854200D90546A8B2A16807467C
:1008E00088478346002000F00DFA01463A465846F4
:1008F00002F004F93946002001F026F92088401B57
:100900002080608828446080A8F800A011494FF436
:1009100040500880D9F800000672BDE8F09F0E4BE9
:100920001878012804D007261021A8F80010F1E754
:100930000A49002009680A4A4FEA014102EBD13115
:100940004860A8F800A01870E4E70000300000201C
:10095000400000203E00002028000020505C0040A5
:10096000006000402DE9F047234EDFF890904FF0F3
:100970003008346834F8100FA168B1B108B3A58805
:10098000854200D90546A8B2074688478246208896
:10099000401B2080608828446080002000F092F98D
:1009A00001463A46504600F0E7FC208848B1144919
:1009B0004FF4405008800021084601F0C5F8A9F81E
:1009C00000802088A188884201D3032001E020B163
:1009D000052031680872BDE8F0873168062008728A
:1009E000084900200968084A4FEA014102EBD13169
:1009F0004860A9F80080EEE73000002040000020A9
:100A00003E000020505C0040006000402DE9F041B5
:100A10005C4C5D4D09262068002729684278062A2B
:100A200005D0AAB1082A4DD00A2A50D06BE002782E
:100A3000520668D18078012804D0022804D0032807
:100A400004D060E0C96956E0096A54E0496A52E09E
:100A50004288B2BBC288022A55D102798ABB027889
:100A6000530601D1838833B102F07F02012A04D0FA
:100A7000022A0CD047E045493DE08A6940790021CF
:100A80009047F0B92068807A0028F4D13BE04179A2
:100A900001F00F0001F070020B063D4901EB8001EF
:100AA000D1F8001C03D5C1F30111090102E0C1F323
:100AB00001310903374B1B78834224D90AB9002935
:100AC000D9D120E0007840061DD1334913E00278E7
:100AD00002F07F02012A16D1827AA2B1428892B92D
:100AE000027982B9C288012A0DD18A694079002130
:100AF000904740B9294931B120684782816100207F
:100B00008847002006E029682068096940788847FE
:100B1000032808D021680A8AA2F57F43FF3B05D14C
:100B20000E72BDE8F08120680672FAE7022808D04C
:100B30003AB1087800061FD5C888824204D90882D5
:100B400012E008200872ECE70ED22868144B90F8E7
:100B50002C00824201D21F7006E0B2FBF0F400FBD1
:100B6000142008B901201870286890F82C00888299
:100B7000BDE8F041FFF798BE032008720949000361
:100B80000880CEE73000002034000020C11E00089D
:100B900000500040A4000020551E0008991E0008C7
:100BA000280000203E0000207047704710B501204B
:100BB00000F098F8074C60606068982182B206489F
:100BC00000F0DAFB4FF44051012000F07FFF0120DC
:100BD000207010BD5C000020A801002070470000BC
:100BE00010B5022000F07EF80749886088684FF44D
:100BF000907182B2054800F0BFFBBDE810404FF491
:100C00004051022000F062BF5C000020A8010020DB
:100C10007047F0B5CC78002204F00F03E40601D54C
:100C20008C7823430C884FF00F0C14F0FF0F4FF01B
:100C3000010E1AD005680E880EFA02F42640A6426C
:100C40000FD196000CFA06F7BD4303FA06F63543BA
:100C5000CE78282E02D0482E02D002E0446100E077
:100C60000461521C082AE6D305600A88FF2A1DD9B0
:100C70004568002202F108060EFA06F40E882640A6
:100C8000A6420FD196000CFA06F725EA070703FAE9
:100C900006F5CE783D43282E00D14461CE78482E0B
:100CA00000D10461521C082AE4D34560F0BD02461D
:100CB000002092680A4200D00120704741617047CD
:100CC000016170470549096889B201EBC000044918
:100CD00001EB4000806880B270470000505C00402B
:100CE000006000400549096889B201EBC000044971
:100CF00001EB4000C068C0F309007047505C004041
:100D0000006000400449096889B201EBC000034952
:100D100051F8100080B27047505C00400060004005
:100D200010B50B4C0146072301222046FFF7A2FA1B
:100D300001212046FFF7DDFA02212046FFF768FA7D
:100D40000028F9D02046BDE81040FFF75EBA000049
:100D5000002401402DE9F041002507460E462C46AF
:100D600008E03846FFF7DCFF0544052001F016FFD8
:100D7000641CE4B2B442F4D3B5FBF6F080B2BDE833
:100D8000F0810000094810B50168446880680818BF
:100D90000BD00822064900F0A7F805492046042296
:100DA000BDE81040103100F09FB810BDE8F7FF1FFC
:100DB00044000020FEE700002DE9F04104460D4606
:100DC00086B00121022000F0B1FC01210C2000F0CE
:100DD000B9FC0322ADF8102028228DF8132004A9B5
:100DE0002048FFF716FFADF800500025DFF87880A7
:100DF000ADF80440ADF80650ADF8025069464046E3
:100E000001F086FC194C0820012620806580A68010
:100E1000E580112727812146404601F039FB0C204F
:100E200020806580A680E58027812146404601F02C
:100E30002FFB1D208DF80C0002208DF80D008DF881
:100E40000E508DF80F6003A800F0BFF901221921A0
:100E5000404601F0B1FB0121404601F0FEFA06B028
:100E6000BDE8F081000C014000040040B402002005
:100E700010B5134C2068017A022904D0042902D04D
:100E8000062905D015E0FFF70FFD2068007A11E074
:100E90004178052909D10178490606D1C07800F0CA
:100EA000C3FD08480068006A8047074800688068FA
:100EB0008047082021680872BDE8104000F09CBB04
:100EC00030000020380000203400002000B500F081
:100ED00013FD00F05BFB00F05DFA00F05FFA4120CB
:100EE0005DF804EB00F03DB9F0B500230A26302789
:100EF0004FF0370C1C460FE0B6EB107F02D907EB22
:100F0000107501E00CEB107501F8135001EB43056F
:100F100000015B1C6C70DBB29342EDD3F0BD0000AE
:100F200008B50121112000F00DFC4FF47C40ADF814
:100F3000000028208DF8030069460248FFF769FE8B
:100F400008BD0000001001402DE9F05F00274D4C66
:100F50004D4E01254FF480684FF400694FF4805ADC
:100F60004FF4005B08B1257001E0207828B34146BA
:100F70003046FFF79CFE012825D049463046FFF752
:100F800096FE01281FD051463046FFF790FE0128FB
:100F900019D059463046FFF78AFE012813D04FF486
:100FA00080413046FFF783FE01280CD04FF400410A
:100FB0003046FFF77CFE012805D041463046FFF75A
:100FC00076FE78B35BE0052001F0E8FD277041462E
:100FD0003046FFF76CFE012820D049463046FFF727
:100FE00066FE01281FD051463046FFF760FE0128FB
:100FF0001CD059463046FFF75AFE012819D04FF44D
:1010000080413046FFF753FE012815D04FF40041D0
:101010003046FFF74CFE012811D030E065800120FA
:10102000BDE8F09F0EE002206080F9E703206080B9
:10103000F6E704206080F3E705206080F0E70620F3
:101040006080EDE749463046FFF731FEB8B95146BA
:101050003046FFF72CFE90B959463046FFF727FE81
:1010600068B94FF480413046FFF721FE38B94FF49C
:1010700000413046FFF71BFE08B96780257000204D
:10108000CEE700004A0100200010014070B5044680
:101090000E4688B00121082000F048FB0121052000
:1010A00000F050FB0125ADF81C5018208DF81F00F2
:1010B00003208DF81E0007A91148FFF7AAFDADF81F
:1010C0001440ADF8106000240E4EADF81640ADF897
:1010D000124004A9304601F01BFB7020ADF800005F
:1010E000ADF80250ADF80640ADF80840694630460C
:1010F00001F06AFA0121304601F0AFF908B070BD85
:1011000000080140000C0040F8B50121282000F043
:1011100019FB2020ADF8000010240F4E8DF803407D
:1011200003258DF8025069463046FFF772FD2021F5
:101130003046FFF7C5FD0420ADF800008DF80340F0
:101140008DF8025069463046FFF763FD04210348DD
:10115000FFF7B6FDF8BD0000000C0140001401408F
:10116000704700B5412801D0012000BD0821084684
:10117000FFF73AFA3D21112001F0D4FC8621172017
:1011800001F0D0FC7F21262001F0CCFC1E212D2077
:1011900001F0C8FC00212C2001F0C4FC8D212A2084
:1011A00001F0C0FC3E212B2001F0BCFC4FF47A7012
:1011B00001F00EFD00F0F2F8002000BDFEE77047E0
:1011C00070474FF4A06000F02FB870B50F24C278BC
:1011D00001784FF0E0230126E2B1D3F80C2D194439
:1011E00002F4E062C2F5E062120AC2F10405D440E2
:1011F0004278AA408578254015432A0181F80024C9
:10120000007800F01F018E40400903EB8000C0F819
:10121000006170BD01F01F008640480903EB8000AB
:10122000C0F8806170BD00000249084302490860AF
:10123000704700000000FA050CED00E070B5304D7D
:101240002868017844784A0606D001F07F0001281A
:1012500028D002282BD035E0092C06D0052C07D049
:10126000032C0ED0012C14D02CE000F073FE28E0EB
:10127000C1787F292ED8817861BB818851BB807A63
:1012800027E0C17801291DD18088D8B900F07EFE01
:1012900017E0C178012915D1818899B9407A800673
:1012A0000AD40FE00B2C0DD100F0C8FE09E0012C90
:1012B00002D0032C03D005E000F04CFD01E000F06B
:1012C00077FE58B10F4800684169E0B288470328AB
:1012D00002D018B108200FE009200DE00A4A0620CC
:1012E00000211268094B4FEA024203EBD2325160EF
:1012F000074A4FF0300111802968087270BD000064
:101300003000002034000020505C004000600040AD
:101310004000002010B54FF400710348FFF7CEFCE9
:1013200002490020087010BD001001408801002013
:1013300010B50F4C2068007A022811D004280FD075
:10134000032804D0052802D0072805D008E0FFF7BD
:1013500009FB2068007A04E006480068C0688047FE
:10136000082021680872BDE8104000F045B900006F
:101370003000002034000020054B521C520803EBC3
:10138000410104D008C920F8023B521EFAD170472F
:101390000060004003211420FFF726B900B5142097
:1013A00000F03AFA800705D1032114205DF804EB20
:1013B00000F02EBB00BD70B50646082187B00024A2
:1013C0000846FFF711F900210D2001F0ABFB802149
:1013D0000E20FFF709F993208DF8040006AB2020BA
:1013E00000938DF8050001AB022219460C2000F095
:1013F00017F805000DD1002101A8425C7254425C2F
:10140000491C5440C9B20429F7D3405CA04200D023
:10141000022580210E2000F0FBFA07B0284670BD9F
:101420002DE9FF4F0025DDF834B081460F46924686
:101430004FF002082E460C2805D0B9F10E0F04D14A
:101440001225102601E07725302645F08001022084
:1014500001F068FB80210420FFF7C6F8002101207D
:1014600001F060FB80210A2000F0D2FA002404E0A1
:10147000395D092001F056FB641C5445F8D34946F8
:10148000012001F04FFBB9F10C0F03D180210D2099
:1014900000F0BEFA274C042000F0BEF90746641E97
:1014A00003D0F80701D13742F5D080210D20FFF796
:1014B0009BF83CB1062000F0AFF910F01B0F0DD0E7
:1014C0004FF0020880210C2000F0A2FA0021012038
:1014D00001F028FB04B04046BDE8F08F2F404FF0EC
:1014E0000008F80701D04FF00108B9F10C0FE9D15D
:1014F0000A2000F091F905460C2000F08DF910F05B
:10150000070003D0E9000839084400E0E8008BF840
:10151000000025B1122D00D91225002407E0012575
:10152000FBE7092000F078F903990855641CAC42E8
:10153000F7D3C7E7A086010030B50C460546082161
:1015400087B00846FFF750F807210D2001F0EAFAAE
:101550000321142000F05CFA06AB009301AB8DF878
:101560000450012219460C20FFF75AFF18B99DF8C4
:101570001810102902D0022007B030BD9DF80410C9
:1015800021709DF805106170F6E70000194A00B55A
:10159000402313610A2001F01BFB53610A2001F074
:1015A00017FB13610A2001F013FB0F21012001F04A
:1015B000B9FA0F21012001F0B5FA0A2001F008FB69
:1015C0003D21112001F0AEFA1E212D2001F0AAFAD2
:1015D00000212C2001F0A6FA8D212A2001F0A2FA88
:1015E0003E212B2001F09EFA4021152001F09AFAAD
:1015F000002000BD001001400B4810B590F82C10E1
:10160000002000F043FA09480068017A082905D152
:10161000074A48021080074A10201080012009293B
:1016200000D0002010BD0000C400002030000020C9
:101630003E0000204000002010B5012001F08CF990
:101640000748012101604FF00001064A0160416036
:101650004FF4E051118001604FF0000010BD000018
:10166000405C00403C000020F0B504460F4689B0C5
:101670000121082000F05AF80121052000F062F84D
:101680000220ADF8000018208DF80300204E03253D
:101690008DF8025069463046FFF7BBFAADF81840A6
:1016A000ADF8147000241B4FADF81A40ADF8164089
:1016B00005A9384601F02CF87020ADF8040001208F
:1016C000ADF80600ADF80A40ADF80C4001A9384667
:1016D00000F0BAFF0121384600F0BFFE01210420CE
:1016E00000F030F82802ADF8000010208DF803005B
:1016F0008DF8025069463046FFF78BFAB115304637
:10170000FFF7DEFA71153046FFF7DAFA09B0F0BDDF
:1017100000080140000C0040034A516821F4404198
:10172000014351607047000000100240044A002944
:10173000D16901D0014300E08143D16170470000CD
:1017400000100240044A0029916901D0014300E0E1
:10175000814391617047000000100240044A002953
:10176000D16801D0014300E08143D160704700009F
:1017700000100240214A10B55168214B11F00C01B4
:1017800003D0042901D0082901D0036012E0516878
:10179000536801F470114FF0020413F4803F04EB1E
:1017A000914102D053689B0301D5164B00E0144BC6
:1017B000594301605168144B01F0F00109095C5C68
:1017C0000168E1404160546804F4E064240A1C5D4F
:1017D00021FA04F48460546804F46054E40A1B5D44
:1017E000D940C1605268084B02F44042920B1B1F63
:1017F0009A5CB1FBF2F1016110BD000000100240E3
:1018000000127A0000093D0018000020014908601C
:1018100070470000D800424210B5084C4FF4805386
:1018200063604FF07E0101EA400040F0800000F06C
:10183000BDF8002000F0BAF8236010BD100C014084
:1018400000B5FFF7A3FEFFF7A5FD5DF804EBFFF77A
:10185000A5BD000070B51E4C072800D02070207870
:10186000062504261B49062830D2DFE800F00306CF
:10187000090E162200F030F828E000F02DF80AE0FA
:10188000022060700320207070BD6078401E607080
:1018900060780028F8D1267070BDD1F8400C80B275
:1018A00040F01000C1F8400C052020700A20607044
:1018B00070BD6078401E607060780028F8D1D1F863
:1018C000400C80B220F01000C1F8400C257070BDB3
:1018D0003D0100200050004010B5064C206880B249
:1018E00020F004002060FFF73BFC4FF43F402060F5
:1018F00010BD0000405C00402748816941F00101B3
:101900008161816941F008018161816941F01001C3
:10191000816122490A68C2F313020A600A68204BF7
:1019200042EA03020A600A6822F470220A600A6826
:1019300042F440320A601B490A6822F070620A6071
:101940000A6842F040720A60C16941F48041C16195
:10195000154801880180018841F4007101800188E7
:1019600041F480710180018841F004010180018807
:101970000180018821F002010180018821F001012C
:101980000180018841F038010180018801800188CF
:1019900041F040010180704700100240040C0140FA
:1019A0000000B0B800100140003800400749B1F80D
:1019B00008289207FBD5A1F80C08B1F80808C00761
:1019C000FBD0B1F80C08C0B27047000000300040F6
:1019D00070470000024920F00700086070470000CF
:1019E000505C004070B5084D084C01202978002655
:1019F0000129C4F8A00102D1322001F0CFF8C4F8C7
:101A0000A4610220287070BD8901002000002142DD
:101A100030B50C460546FFF7FFFE40EA04012846B4
:101A2000BDE8304001F07EB8F0B50E490E4E48F6E4
:101A30008F770D78002148F2800C0CE0CAB206EBDB
:101A40008203D3F8004CA4B23C40144344EA0C0493
:101A5000C3F8004C491CA942F0D340F08000C6F8FE
:101A60004C0CF0BDA400002000500040054A21F0BD
:101A70000101126892B202EBC000034A02EB40007F
:101A800081607047505C0040006000400D4A126861
:101A90003E2992B202EBC0000B4A02EB400209D988
:101AA0004809C90601D1401E80B24FF4004141EA05
:101AB000802005E04808C90701D0401C80B28002A0
:101AC00010607047505C00400C6000400B4A02EB15
:101AD0008002D2F8000C4BF68F7380B200EA03004C
:101AE000CB0401D580F48050890401D580F40050E6
:101AF00048F280010843C2F8000C704700500040D3
:101B0000084901EB8000D0F8001C4BF68F7289B2B7
:101B1000114081F4405148F280021143C0F8001C8A
:101B20007047000000500040054A21F00101126892
:101B300092B202EBC000034A42F810107047000056
:101B4000505C004000600040044A126892B202EB10
:101B5000C000034A02EB400041607047505C004007
:101B6000006000400B4A02EB8002D2F8000C48F6FD
:101B7000BF7380B200EA0300CB0601D580F01000ED
:101B8000890601D580F0200048F280010843C2F8A0
:101B9000000C704700500040084901EB8000D0F86D
:101BA000001C48F6BF7289B2114081F0300148F242
:101BB00080021143C0F8001C704700000050004034
:101BC000064A02EB8000D0F8002C48F68F1392B240
:101BD0001A400A43C0F8002C704700000050004033
:101BE00070B5084E084D0020317801240229C5F84F
:101BF000A00102D1322000F0D1FFC5F8A441347019
:101C000070BD00008901002000002142014601480A
:101C100000F058BD000C00400146014800F054BDE2
:101C2000000C004003490020086048600249087029
:101C300070470000A00121428901002022490020B4
:101C40000A6842F480320A604FF4A0630A6800F127
:101C5000010012F4003F01D19842F7D108688003D7
:101C600030D51A48026842F010020260026822F081
:101C700003020260026842F00202026048684860A3
:101C800048684860486840F480604860486820F4CC
:101C90007C104860486840F4E8104860086840F0EC
:101CA0008070086008688001FCD5486820F0030057
:101CB0004860486840F0020048604868C0F381000E
:101CC0000228FAD1704700000010024000200240B4
:101CD00010B50020FFF79AFD0121BDE81040C805AE
:101CE000FFF724BD70B518480068194D4FEA004051
:101CF0004FEAD0311548014489684FEA014100EBB1
:101D0000D1342868017A09290FD0217801706178CF
:101D10004170A088FEF799FB296848802089FEF76A
:101D200094FB29688880A089C880286801210172F5
:101D3000C08828B1FEF76AFEBDE87040FFF75CBCC2
:101D4000FFF77CFAF8E70000505C004000600040BC
:101D5000300000202DE9F04139480168087810F082
:101D60007F0002D0022805D067E0487A00F0DF004B
:101D700048724FE04888E8BB0879D8BB4A79324DB1
:101D8000130622F08000002B05EB80032D4CD3F8C6
:101D9000003C03DAC3F301131B0102E0C3F3013378
:101DA0001B0326780446864247D91BB3897A09B3B8
:101DB000110610D505EB8001D1F8001CC1F301110B
:101DC000012923D1E0B20446FEF730FC3021204641
:101DD000FFF7C8FE1AE005EB8004D4F8001CC1F33D
:101DE0000131012912D14BF68F7648F28007A0B15C
:101DF000C0B200E021E0FEF703FCD4F8000C80B292
:101E0000304080F440503843C4F8000C0F4800685C
:101E1000406980470020BDE8F0810D4890F82C1003
:101E20000020FFF733FED5F8000C80B2304080F47C
:101E300040503843C5F8000CE8E70220EBE700000B
:101E400030000020A4000020005000403800002096
:101E5000C400002010B5074C30B107480068006886
:101E6000804720680A3010BD2168012008820020C8
:101E700010BD00003000002038000020054A136823
:101E80005A8A10B10868104470478888801A1882EE
:101E9000002070473000002010B5074C30B10748D3
:101EA00000688068804720680C3010BD21680120E0
:101EB0000882002010BD0000300000203800002003
:101EC000204910B5096860B11F48002202800A78D5
:101ED00053060AD002F07F02012A16D0022A16D039
:101EE00001E002200882002010BD497A8A060278AB
:101EF00002D542F0020201E002F0FD024906027042
:101F0000D1B212D401F0FE0111E00F4810BD4A79A0
:101F100002F00F0113060D4A02EB8101D1F8001CFB
:101F200007D5C1F3011106E0017841F0010101700C
:101F300003E0C1F301310129F6D0054800680069CA
:101F40008047E2E7300000202A00002000500040D7
:101F5000380000200A4810B500680A4AC178527853
:101F6000914203D882780AB982880AB1022010BD52
:101F700081720548006840688047002010BD00005D
:101F800030000020A400002038000020064810B5D2
:101F90000068417A41F02001417204480068C0693C
:101FA0008047002010BD00003000002038000020D5
:101FB00070B51E4802681E48517921F0800500EB7B
:101FC00085000B06D0F8003C21F0800403D5C3F354
:101FD00001131B0102E0C3F301331B03154D2D78E0
:101FE000A54212D9548884B97BB1927A6AB10906A4
:101FF0000029D0F8001C48F2800289B207DA48F6BE
:10200000BF73194081F0100106E0022070BD4BF64D
:102010008F73194081F480511143C0F8001C0648A9
:10202000006880698047002070BD000030000020FB
:1020300000500040A40000203800002010B50E4CD5
:102040000E4A20681268C1789269407990472168E9
:102050008A7A22B118B9087908B9887808B10220BB
:1020600010BD07480068C068804720684179C17288
:10207000C1780173002010BD300000203400002022
:10208000380000200648016889B241F0080101606B
:10209000016889B241F004010160FEF7B9BD00009A
:1020A000405C00404FF0E0210428086903D020F094
:1020B00004000861704740F00400FAE77047000030
:1020C0000F4810B5016841F00101016041680D4AF7
:1020D0001140416001680C4A11400160016821F41F
:1020E00080210160416821F4FE0141604FF41F012D
:1020F0008160FFF7A3FD05494FF00060086010BD47
:10210000001002400000FFF8FFFFF6FE08ED00E0BF
:1021100030B5048C24F001040484058B048C1B0569
:1021200042EA134325F0F3050E4A2B4390420ED0AA
:102130000D4A90420BD0B0F1804F08D00B4A90422C
:1021400005D00B4A904202D00A4A904202D124F0B4
:10215000020201E024F00A020A4342F00101038373
:10216000018430BD002C01400034014000040040D7
:1021700000080040000C004070B5048C24F01004EE
:102180000484068B048C26F473461B0746EA13432B
:10219000120643EA12420D05104B2D0C98420ED048
:1021A0000F4B98420BD0B0F1804F08D00D4B9842A6
:1021B00005D00D4B984202D00C4B984205D124F02B
:1021C0002001294341F0100104E024F0A0030B4357
:1021D00043F010010283018470BD0000002C014017
:1021E000003401400004004000080040000C0040A2
:1021F00010B501218C07204600F03EF9E0B33249CA
:1022000000238888401C80B288800A280DD38B80E8
:102210004A8A888A824205D9022A01D9921E03E09D
:102220004B8202E001D2921C4A82C878012814D164
:10223000CB70886AC1E90A300A8BCA82234AB2FB92
:10224000F0F080B28882782807D97838C21700EB7E
:102250009270782202EBA0008882088A401C80B22B
:1022600008820A280ED90B82C8880A89904206D9AA
:10227000072802D9C01F04E01FE0CB8002E001D292
:10228000001DC8804878012817D14B70C86900EB41
:102290008000C1E907308A894A810D4AB2FBF0F01B
:1022A00080B20881B0F5967F07D9A0F59670062216
:1022B00090FBF2F000F5967008812046BDE81040D2
:1022C000012100F0C7B800005401002050F80C00B4
:1022D000404B4C007FB50D46044601210846FFF7F0
:1022E00025FAADF80440ADF8005000244FF08045C9
:1022F000ADF80640ADF802406946284600F008FAFD
:1023000001221146284600F057F91C218DF80C10C7
:102310008DF80D4003208DF80E0001208DF80F0080
:1023200003A8FEF752FF0121284600F096F87FBD72
:102330002DE9F041444D0121284600F09DF8434E1F
:102340000024F8B1B17831B144F62062012907D0F8
:10235000022905D00EE0B462F4623463B48209E06D
:10236000708B401C80B27083904200D9B470B06A08
:10237000401CB062307830B142F21071012807D0B1
:10238000022805D00EE0F46134627462348109E001
:10239000F089401C80B2F081884200D93470F06925
:1023A000401CF0610821A846284600F065F8022785
:1023B000012508B326497483D1F8940148B100205F
:1023C000C1F89401B07830B101280AD0022809D0B0
:1023D00012E00120F4E7B570404600F048F8F082C2
:1023E0000AE0B770404600F042F83083F18A884234
:1023F0000FD9401A3063F5701021404600F03CF8C8
:10240000D0B1F481307830B101280AD0022809D047
:1024100012E0081AEEE73570404600F02AF87081A5
:102420000AE03770404600F024F8B0817189884294
:1024300008D9401A706275704046BDE8F041192114
:1024400000F008B8081AF5E7000400405401002025
:1024500000802142C943018270470029018802D0CF
:1024600041F0010101E021F0010101807047808FFE
:102470007047B0F84000704702460020138A9289E6
:102480000B4202EA010202D0002A00D0012070476C
:102490002DE9F05F0D4604460888424E424FDFF8B2
:1024A0000C81DFF80C914988AA882B894FF0804A6B
:1024B00028B104280CD00828934612D040E02046CA
:1024C000FFF726FEE9882046BDE8F05F00F0FEB881
:1024D0002046FFF751FEE9882046BDE8F05F00F096
:1024E000FDB8208C20F480702084A28B208C1B05EA
:1024F00022F0F3024BEA13434FEA016C13434FEA15
:102500001C4EB4420AD0BC4208D0544506D04445C3
:1025100004D04C4502D0274A944204D120F40070E4
:1025200040EA0E0002E020F42060084340F480708E
:10253000A3832084E9882046BDE8F05F00F0D7B887
:10254000208C20F480502084B4F81CC0208C0A0712
:102550004FEA124E2CF4734C4FEA0B621B074CEA05
:10256000124242EA1343B4420AD0BC4208D0544556
:1025700006D0444504D04C4502D00E4A944204D1C2
:1025800020F4005040EA0E0002E020F4024008432C
:1025900040F48050A3832084E9882046BDE8F05FA2
:1025A00000F0ADB8002C01400034014000040040B0
:1025B00000080040000C0040002A828901D00A4334
:1025C00000E08A438281704730B5028C22F001021C
:1025D0000284028C8388048B22F0020224F07305AB
:1025E0000C882C430D8915434A882A43114DA84273
:1025F0000BD0114DA84208D0104DA84205D0104D67
:10260000A84202D00F4DA8420DD122F008054A89F8
:1026100023F440732A4322F004058A882A438D89D3
:102620001D43CB892B4383800483C9888186028420
:1026300030BD0000002C014000340140004001404A
:10264000004401400048014030B5028C22F01002E5
:102650000284028C8388048B22F0200224F4E64555
:102660000C88240645EA14440D892D0542EA1545D7
:102670004A88120545EA1242104DA84202D0104D78
:10268000A84215D122F080054A8923F4406312053F
:1026900045EA124222F040058A88120545EA1242B4
:1026A0008D89AD0443EA1545CB899B0445EA134364
:1026B00083800483C9880187028430BD002C0140D7
:1026C000003401408186704701877047028B22F0F9
:1026D0000C020283028B0A4302837047028B22F4AE
:1026E00040620283028B42EA012202837047828B9E
:1026F00022F00C028283828B0A4382837047828B92
:1027000022F440628283828B42EA012282837047F4
:1027100030B502881B4C1C4DA0420DD0A8420BD0F6
:10272000B0F1804F08D0194B984205D0184B984211
:1027300002D0184B984203D122F070034A881A4302
:10274000154B984206D0154B984203D022F44073A3
:10275000CA881A4302808A8882850A880285A04234
:102760000AD0A84208D00E4A904205D00D4A9042A5
:1027700002D00D4A904201D1097A0186012181825D
:1027800030BD0000002C0140003401400004004036
:1027900000080040000C0040001000400014004001
:1027A00000400140004401400048014010B5074C82
:1027B00040F22551204600F03AF8002804D0204687
:1027C000BDE8104000F0C4B810BD00000038014062
:1027D00010B50D4C40F22551204600F028F8002895
:1027E0000CD0204600F0B4F8094A084BC0B211885A
:1027F0000A28585401F1010101D0118010BD41F4A3
:102800000040108010BD000000440040A8020020DD
:1028100050010020C943018070470029818902D0FE
:1028200041F4005101E021F400518181704770B5FD
:1028300001F01F0601250024C1F3421305FA06F238
:10284000012B0FD0022B0FD0838A4FEA1121008871
:10285000134205FA01F500EA050001D000B1012498
:10286000204670BD8389F0E7038AEEE710B5C1F317
:10287000421301F01F040121A140012B07D0022BBC
:1028800007D01430002A026805D00A4304E00C3057
:10289000F8E71030F6E78A43026010BD30B50D4608
:1028A000018A85B004464CF6FF700140E888084371
:1028B0002082A0894EF6F3110840A9882A89114385
:1028C0006A8902431143A181A18A4FF6FF4001406A
:1028D000A8890843A0826846FEF74CFF1B48844243
:1028E00001D1039800E00298A1890904002900EBB6
:1028F000C00101EB0010296802DA4FEA410101E052
:102900004FEA8101B0FBF1F06422B0FBF2F14FEA33
:1029100001114FEA11136FF018056B4300EB8300B0
:10292000A3891D044FF0320306D503EBC000B0FBB2
:10293000F2F000F0070005E003EB0010B0FBF2F04E
:1029400000F00F000843208105B030BD0038014081
:102950008088C0F308007047044A00284FF40061E3
:10296000104601D0FEF7AAB9FEF7AAB90018014037
:1029700010B500231046402A00D94020044A03E045
:10298000D45C01F8014B5B1C8342F9D310BD0000FD
:10299000A801002006480549022201600A72064A81
:1029A0000449C0E901120868004700008C010020BA
:1029B00030000020C40000201401002008B51420BD
:1029C0008DF8000001208DF8010000218DF8021023
:1029D0008DF803006846FEF7F8FB08BD70B52D4C76
:1029E000D4F8440C2C4D688068882C4E31880840FF
:1029F000000401D5FDF72EFD6888318808404005A8
:102A000006D54FF6FF30C4F8440C2548406880478F
:102A1000698830880140890403D54DF6FF71C4F8F8
:102A2000441C69880140C80406D54EF6FF70C4F8FE
:102A3000440C0020FEF70EFF68883188084000052E
:102A40000CD51848007810B1FFF71CFB02E00220FB
:102A5000FEF700FF4FF2FF70C4F8440C698830881D
:102A60000140890507D54FF6FF51C4F8441C297869
:102A700001F10101297069880140C80508D54FF6A8
:102A8000FF60C4F8440CBDE870400720FEF7E2BECA
:102A900070BD000000500040680000203C00002095
:102AA000C40000203C010020FFF798BF054900202A
:102AB0004860054A4FF43F40108008604FF0000026
:102AC00070470000405C00403C00002070B50646A6
:102AD000154694B20846012E22460CD04FF4B07130
:102AE00000F00CF821463046FFF72EF83046FFF78D
:102AF00053F8284670BDD821F2E7FEE7084B10B521
:102B0000521C520803EB410108D003784478801C22
:102B100043EA042321F8043B521EF6D110BD000005
:102B20000060004030B5084C4FF480530D466360A0
:102B30004FF07E0101EA4000FEF738FF2846FEF71D
:102B400035FF236030BD0000100C014002E008C8D2
:102B5000121F08C1002AFAD170477047002001E017
:102B600001C1121F002AFBD17047000010B56FF0A1
:102B70000400FFF797FA064806494FF47A72006896
:102B8000B0FBF1F00449C0B208705043488010BD5A
:102B90000000002000127A00460100200B494988FD
:102BA00048434FF0E021486100238B61086940F001
:102BB000010008610869C20701D0C003FAD508699D
:102BC00020F0010008618B61704700004601002081
:102BD000002103E000BF00BF00BF491C8142F9D3C0
:102BE00070470000002492B0274625461094FFF756
:102BF000BDFFFEF7E6FAFFF7E1FEFFF769F8FFF722
:102C0000C9FEFEF781FAFEF78BF9FDF7D1FC40F221
:102C1000833600213046FEF739FA00213046FEF7B0
:102C200023FD23216320FEF7C7F840F2671140F22D
:102C3000E730FFF74FFBFEF749F9FDF7ADFBFDF776
:102C400067FB4FF4AF70FEF7E7FFFEF763FB664EDE
:102C5000DFF898A1A3466648017861B180F800B01A
:102C60006448026808A90120FFF782FE1022694625
:102C70000120FFF72BFF0020FEF766F900B114B129
:102C8000012C03D004E00124074601E000B9002430
:102C900007282ED2DFE800F02D04040404040D0000
:102CA000D6F8940118B10020C6F8940121E0012063
:102CB000FAE7D6F8940138B10020C6F89401B9F1CA
:102CC0008C0F03D900250AE00120F6E7B9F1640F63
:102CD00001D2012506E015B1012D03D009E0FEF770
:102CE0007FFF01E0FEF77EFE3220FFF757FFFEF781
:102CF00099FF41495220FEF71FFC3F48801CFEF718
:102D00005AFB28B33C4A0020921C59461154401CDF
:102D1000C0B20428FAD30A210C20FEF71BF8804623
:102D20000A210D20FEF716F808F26D111FFA81F83E
:102D3000C82148434FEA1039BAF80000B0F5C87FFF
:102D400011D24FF67D4101EB5000404280B20CE0C1
:102D5000D6F8940128B10020C6F89401FEF770FD62
:102D6000D9E70120F8E74FF42F70FEF74FFF04205A
:102D70008DF8000002208DF801001F48801C0178AA
:102D80008DF8021041788DF8031081788DF80410C9
:102D9000C0788DF80500BAF80000010A8DF8061019
:102DA0008DF807001548012C00888DF808004FEABF
:102DB00018208DF8090012488DF80A8000788DF8E7
:102DC0000B00104800788DF80C0009D08DF80D70BC
:102DD000002710988DF80E0005208DF80F003AE7B7
:102DE0008DF80DB0F5E70000008021425A01002067
:102DF0005C000020600000203F01002066010020F0
:102E0000880100204E010020120100020000004055
:102E10004843375500020102030109022000010165
:102E200000E0FA0904000002DCA0B00007058102FE
:102E300040000007050102400000040309041403D8
:102E40004D0079005500530042005F0048004900E2
:102E500044001A035500530042002D0043006F0048
:102E60006C006F0072004400650076008C2E000834
:102E7000000000208C01000048010008202F0008FD
:102E80008C010020340500005C2B00081184A24A4C
:102E900004680D010203040607080902040608106D
:102EA0006914011A141A0378A902011A13AB0B1B37
:102EB00008DD040B10C111041AAD180A15E11C63DA
:102EC000030113082E2B081272190832201A2C083D
:102ED0002999138508140869071B0881081A8304B7
:102EE000137D061B0849101A3D041AE50C1AD90473
:102EF0001A1D0C4132401A3A3829F51A3E0832148C
:102F00001A5208321A22422A200829741A454809FE
:102F1000128C29041A5D1C41599771C90E013400A5
:04000005080000ED02
:00000001FF
